:100000000C94D6120C94FE120C94FE120C94FE1258
:100010000C94FE120C94FE120C94FE120C94FE1220
:100020000C94FE120C94FE120C94471F0C94B61FF5
:100030000C94FE120C94FE120C94FE120C94FE1200
:100040000C94FE120C94FE120C94FE120C94FE12F0
:100050000C94FE120C94FE120C94FE120C94E821E7
:100060000C94FE120C94FE120C94FE120C94FE12D0
:100070000C94FE120C94FE120C94FE120C94FE12C0
:100080000C9432220C94FE120C94FE120C94FE126C
:100090000C94FE120C94FE120C94FE120C94FE12A0
:1000A0000C94FE120C94FE120C94FE123C380000CC
:1000B00000000080F8FE0FE3FB1B0B0B8BFBF3F73C
:1000C000F6F6F60606ECECECECECECECECECECEC1E
:1000D000ECECECEEE6F6F6F6F7F3FBFBCBCBFBE352
:1000E0000FFEF8801E332121339E00000080F8FFB0
:1000F0000FE0F8F9F9F9F9F9F9F9F1F3F3F3F3F09D
:10010000F0FFFFFFFFFFFFFFFFFFFFFFFFFFFFFF0E
:10011000FFFFFFFFFFFFFFFFFFFF7F7FFEE00FFFFF
:10012000F880060600000000000F3FF0C607040438
:10013000070707070707070707070707FFFFFFFF6F
:10014000FFFFFFFFFFFFFFFFFFFFFFFF070707079F
:1001500007078787070726860707C6F03F1F008027
:100160008000000000000000030784C4E4E4E4E42D
:10017000E4E4E4E4C49C000FE7E7E7E7E7E7E7E748
:10018000E7E7C7870F1F0FC7E7E0ECE4E4E4E5E526
:10019000E4C4040404070300C040C30311000000CA
:1001A000000000000000FFFFFFFFFF393939FFFFAB
:1001B000FF0FE0E0EFEF0FFFFF183879FFFFF703C5
:1001C000E0E0EFEF0FFFF9F0F0FCFDFDFD0DECE0DE
:1001D000E0E00000012101000000000080C060207C
:1001E00060C080000000000C0C007EFE803C3E1CC5
:1001F0001C1C1C1C0C0C0E0C0C0C0C0E1E1C1C1CB9
:100200001C3C3E80FE7E00000000C0E0E0C000001C
:100210000000030300000E1B3166C680D060311B56
:100220000E00003828380001471E382020202030DA
:100230001010D0D0101090103020202020381E0731
:10024000010000060600000101000000000000009F
:1002500000005308C0FC0F89F83F03C0F89F8909CC
:1002600001C0F89F8300C0F81F13110F02000000A7
:10027000C07C243CC0BC8480705CFC00DC70180432
:10028000000000E01CC03CFCF00CC07C2424C0B882
:10029000847C08000000C0B8C44CC8B8847CC83C4A
:1002A000FCF00CC07C2424C078A470CCFCA424C036
:1002B000BC84C07C243C00000000C0F81F13110F58
:1002C000C2F89F8380C0703CA7FF0F000000FF7F33
:1002D0000C0601010000E01CC03CFCF00CC07C24BA
:1002E00024C0B8847C08000000C0B8C44CC8B884DE
:1002F0007CC83CFCF00CC07C2424C078A470CCFCEE
:10030000A424C0BC84C07C243C00000000C07C2429
:100310003CC0BC8480705CFC00DC701804000000F1
:1003200000C0F81FC3F80FFFE37C07C1F81F0909DD
:1003300061FC8EC1791F020000000000C0B8C44CEF
:10034000C8B8847CC83CFCF00CC07C2424C078A4D1
:1003500070CCFCA424C0BC84C07C243C0000000001
:10036000C07C243CC0BC8480705CFC00DC70180441
:10037000000000E01CC03CFCF00CC07C2424C0B891
:10038000847C0800000040FC9E8361230360FC8E97
:10039000C1791FC2F80FFFE37C07C1F81F090901EB
:1003A00032380000000000000000000000000000E3
:1003B0000000000000000000000080D058C8F8389D
:1003C00000000080F03888F83880D058C8F838002D
:1003D000F07818F8000000000000000000000000A5
:1003E0000000000080C0C04040C0C0000303020302
:1003F00001000000081B131E0F010003030203018C
:1004000000030300030300000000000000000000E0
:1004100000000000E0FCFF0F0080F8FF1F0300E079
:10042000FC1C040404A0D85C44E4FC3800E0F83C64
:1004300004F4FC1C04E0FC3C000000000000000090
:100440000000000000060707040406030100000086
:1004500007070100000007070504070701103337ED
:10046000273C1F0F00000707050480D058C8F83844
:1004700080F038080800E8FC0E08000080F03F8F8C
:10048000F83800F8F8C0701808000080F07F0F817D
:10049000F07F0780F03808F87880F0380303020313
:1004A0000100030300000002030200000000030338
:1004B00002030100181F0701000080C040C1C302F1
:1004C0000203010000030300C3C3400383C2000012
:1004D000000000000000000000000000000000001C
:1004E00000000000000000000060F8888FBEFEE3FE
:1004F000B908000000E0E080E07C1F0160FC9F8103
:100500007810F87880F07848783000000080F03F6C
:100510008FF83800F8F8C0701808000000000000DC
:1005200000000000000000000000000000000000CB
:1005300000000003030003030203C1C040000003E6
:100540000302030100181F87814040C0C0800000E3
:1005500080804040C0C0800000000000000000001B
:100560000000000004C0FC7C0480F0FE1F0300A01B
:10057000D85C44E4FC3800003E3F23A0F0FF1F831A
:10058000F0FE1F0B88F8F9010100000000000000D8
:100590000000000000000607030004070700000039
:1005A0000707050407070100030707040403030006
:1005B000000307070404030300000000000000001C
:1005C000000000000000000088B83080F03F87F095
:1005D0007848783000809C3EF1F1470680F03888FA
:1005E000F83880F03888F83880F038080880F07FD4
:1005F000E7300808F8F8C07018084340C0830300CB
:1006000083C342C3C1000183C24243C18018DFC11A
:1006100002030100030302030100030300000003BF
:100620000300030300181F0701000000E07E0F0114
:1006300060E081C47C3F03C0FC3F0FF8FE07E1FE91
:100640001F0100000000000000000000000000008A
:100650000000000000000000000000000000490849
:1006600040E08EDB713363FC8EC1791F0240F89F3E
:1006700083703E07C0F80FFFE37C07C1F89F8371CA
:100680003F0600000060FC8EC1791F02C0F81F0900
:1006900009C1F81F0909010000001010000000C086
:1006A000B8847CC83CFCF00C0040E08EDB71336306
:1006B000FC8EC1791F0240F89F83703E07C0F80F7F
:1006C000FFE37C07C1F89F83713F06000000C0B8BC
:1006D000847CC87C2424C07C2424000000001010EA
:1006E00000000060FC8EC1791F02C0F80FFFE37CA0
:1006F00007012038000000000000000020F0787C96
:100700003E3E3E1E1F0F0F0E0E0C0808080808087C
:100710000404040480F008040402030101808080C2
:10072000808080C0E0E0C0C08000000000000000C9
:10073000000000F03FE0000000000018F1C3CCD83A
:10074000D09999151D1F1F32333B32321000000023
:100750002040807F00010EF000000000CF7F8783E3
:100760000101010EF1010101020204E4F41494F408
:100770006808898A0000003FE000000619E00000D8
:10078000031C204080071820C0303F0F033E3F016C
:10079000383F27340000000000010618E01FE00089
:1007A000000000000001020408B1660830C000002B
:1007B000000000000000000000000006090807001B
:1007C0000000000000000000000102020204050A0F
:1007D0000A04000004040808080808081010103073
:1007E0002040408080000000000000006010884829
:1007F000C85060C00000000000000000002078C861
:10080000F07800000103067880000000007FC449F2
:10081000281E35EAC0800000000000000000000033
:1008200001909098CCC4E4E4B3B21C000000000135
:10083000030203028C09098A9212149494128A8A80
:100840008909040686868607058587800000008062
:10085000808000001703003F3F380F03383F2734E4
:100860001703383F0300003037271C0D00383F279F
:10087000341703000000000000000000000000002A
:10088000000080F07F17D0F83F0780F03888F838F4
:1008900080F0388800000000000000000000000028
:1008A0000000030300000303000003030203010030
:1008B00003030203400000000000000000000000ED
:1008C0000000008080404020301010100808080808
:1008D0000808040450C020A09830C0000000008028
:1008E00078060301000078F0C878200000000000BE
:1008F000000000000202010000010300001CB2B36E
:10090000E4E4C4CC989090010000000000000000D6
:10091000000080C00000E070F01000C0F0F7350566
:1009200087868606060489898A0A1294949492120C
:100930008A89090C303F073E3F1C07391F03383FA7
:1009400027341703383F030000303F07313F07319A
:100950003F07383DB83080F07FE7300888F07848AE
:10096000783000F8F8C0701808000000000000009F
:100970000000000000000303000303000303020360
:100980000100181F07010000000000000000000027
:1009900000000000040404040808080808080C0EFD
:1009A0000E0F0F1F1E3E3E3E7C78F0200000000020
:1009B00000000000F00000000000000000000080C7
:1009C000C0C0E0E0C080808080808001010302041C
:1009D0000408F0807F8040200000001032323B335A
:1009E000321F1F1D159999D0D8CCC3F118000000F3
:1009F0000000E03F8A8988880404A42404848202D9
:100A0000F13101F10E01010183877FCF0000000069
:100A1000F00E0100253C1F03383F03383F2338DF29
:100A20002318078040201E030000E019060000E0A4
:100A30003F000000000000000000C0300866B10860
:100A4000040201000000000000E01FE018060100A1
:100A5000000000000000040A0A050402020201006E
:100A60000000000000000000000708090600000068
:100A700000000000101800000000000000000060EE
:100A800040F0C0F898FCB8FE30FFC6FFDCFE80FCEA
:100A9000008000000000008000C080E040F080E0A6
:100AA00080C000810081008181C343FFDBFFDDFF47
:100AB000EEFFECFF00FC000F051F1A3F3F7F037F96
:100AC0007CFF7FFF7FFF78FF377F0F7F1E3F0D1F6B
:100AD000050F010700032040000000000080F07FA8
:100AE00017D0F81F83F038C8F81000F8886018F89D
:100AF000C0701808000080F800000000000101002C
:100B0000000101000001C1C140C0C10181C041C15B
:100B1000010080C040C00101000000000000000092
:100B200000000000000C07000E07000E0F0905056D
:100B3000000E0F090505000E000000000000000077
:100B400000000000000000000000000000000000A5
:100B5000000000000000000000FF01A955A955A9F0
:100B600055A955A955A955A955A955A955A955A995
:100B70005501FF0155A955A900FF04A455A455A48A
:100B800055A455A455A455A455A455A455A455A49D
:100B90005504FF0455A455A400FF10925592559298
:100BA000559255925592559255925592559255920D
:100BB0005510FF1055925592007F404A554A554AAC
:100BC000554A554A554A554A554A554A554A554A2D
:100BD00055407F40554A554A18C8F810E87800C07B
:100BE000F038E8780080F818C8F81800F8F860388D
:100BF0000800000000E83C0E80C140E179080001D7
:100C00000141E1700081C040C18000040701C04083
:100C100000C0C00081C141800F080E030000000029
:100C2000080F0900040F090E0700000000080F0C50
:100C300003080F0E03000C0F00000000000000006E
:100C40000000000000000000000000000000080C90
:100C50000C0C04000000000055A955A955A955A980
:100C600055A955A955A955A955A901FF01A955A9E6
:100C700055A955A955A955A955A455A455A455A498
:100C800055A455A455A455A455A404FF04A455A4E3
:100C900055A455A455A455A45592559255925592D4
:100CA0005592559255925592559210FF1092559229
:100CB0005592559255925592554A554A554A554A1C
:100CC000554A554A554A554A554A407F404A554A21
:100CD000554A554A554A554A80F03A82F818C8F89C
:100CE00010E87800C0F038A8B80080B0B8D8180074
:100CF0000000C0F018C87C0FD111C0C141C0C100B4
:100D000001010080C141C1000000010181C040C05B
:100D1000400081C141C10000010C07000E07000026
:100D200000000E0F090F03000000203C2F381E03A7
:100D3000000E0F090F03000C0000000000082C3CFF
:100D40001E0F0D0400000000000000000000000065
:100D5000000000000000000055A955A955A955A99B
:100D600055A95501FF0155A955A955A955A955A939
:100D700055A955A955A955A955A455A455A455A497
:100D800055A45504FF0455A455A455A455A455A431
:100D900055A455A455A455A45592559255925592D3
:100DA00055925510FF105592559255925592559265
:100DB0005592559255925592554A554A554A554A1B
:100DC000554A55407F40554A554A554A554A554A15
:100DD000554A554A554A554A81F038C8F81000001E
:100DE0000000F8F860380880F038C8F810C0F8182B
:100DF000C0F8180000000000C0C141C18040C00020
:100E00000084C741C00000203189E9780001010158
:100E100001000000000000000F000E07080F030093
:100E20000E0F0905050000080B010000000000007E
:100E300000000000000000000000000000000000B2
:100E400000000000000000000000000000000000A2
:100E5000000000000000000055A955A901FF01A9EC
:100E600055A955A955A955A955A955A955A955A992
:100E700055A955A95501FF0055A455A404FF04A484
:100E800055A455A455A455A455A455A455A455A49A
:100E900055A455A45504FF005592559210FF109289
:100EA000559255925592559255925592559255920A
:100EB000559255925510FF00554A554A407F404A79
:100EC000554A554A554A554A554A554A554A554A2A
:100ED000554A554A55407F000608E09C8241390733
:100EE0000000C239070080C4A2910907E08082C9CE
:100EF0003D072030ACF22F0140CC8BC53D01E0BC5A
:100F00008EC9390380C061190503E0948A493D0701
:100F1000C09C92D139071018F8C4320AF6020119A0
:100F2000254B4325DAA294883F409CB252930C088B
:100F3000084848A11804020170884621100805627B
:100F40009A44201009060000F8C4320AF60201197A
:100F5000254B4325DAA294883F409CB252930C085B
:100F60000848C821180402017088462110080502AB
:100F700004081021224488F0F8C4320AF60201194C
:100F8000255B4B25DAA498003F409CB252930C0895
:100F9000084848A11804030070884621100805621B
:100FA0009A442010090600008894A2DA25434B25B4
:100FB000190102F60A32C4F801020418A1484808CF
:100FC000080C9352B29C403F000006091020449A3E
:100FD00062050810214688708894A2DA25434B25C3
:100FE000190102F60A32C4F80102041821C848089F
:100FF000080C9352B29C403FF08844222110080410
:1010000002050810214688700098A4DA254B5B255C
:10101000190102F60A32C4F800030418A14848086E
:10102000080C9352B29C403F000006091020449ADD
:1010300062050810214688700808187EF299090B8D
:1010400009060C06060F7B82A6786090D090994F17
:101050007E181E6541DEF06060302040FFFFFFFF1C
:10106000FFFFFFFF1FEFF1FFFFFFFFFFFFFFFFFF8E
:10107000FFFFFFFFFFFFFFFF7F3F1F1FFFFFFFFF80
:10108000FFFF01FEFFFFFFFFFFFFFFFFFFFFFFFF6F
:10109000FFFFFFFFFFFFFFFFFCFBF706FFFFFFFF68
:1010A000FFFFFEF9E7DF3FFFFFFFFFFFFFFFFFFF4F
:1010B000FFFFFFFFFFFFFFFFFFFF3F00FF7F3F1F1F
:1010C0009F4F87132B532B128255A54B1BF7F7F716
:1010D000F7F7FBFBFBF9FD7D1E00007FFFFCF8F935
:1010E000FAF1F0F0E0C0000000083C3E3FFFFFFFD7
:1010F000FF7F7F3F3F07010000000000FFFFFFFF71
:10110000FFFFFFFFFFFFFFFEF8F0E0C080800080E0
:10111000808020802090A09048D40A24FFFFFFFF09
:10112000FFFFFFFFFFFFFFFFFFFFFF05F2FEFCF9E0
:10113000FBF3EF03FCFBFBFFF00EFEFFFFFFFFFFE7
:10114000FFFFFFFFFFFFFFFFFFFFFFFFFFFFFFFFAF
:10115000FFFFF9FEFFFFFFFFFFFFFFFF1F3F3F1FE6
:101160001F1F3F7FFFFFFFFFFFFFFFFFFFFFFFFF8F
:10117000FFFFFFFFFFFFFFFFFFFFC71FF7F8FAF6B4
:1011800006F4FAFCFFFFFFFFFFFFFFFFFFFFFFFF7B
:10119000FFFFFFFFFFFFFFFFFFFFFFFF8F4F0F4F1F
:1011A000001F5FBFBFFFFFFFFFFFFFFFFFFFFFFF4E
:1011B000FFFFFFFFFFFFFFFFFFFFFFFFBF5CA85424
:1011C000A85400FEFDFBFBF7EF07C7DFBFBFBF7FE3
:1011D0007F7F7F7FBFBFBFDFEF2FF7FBAA55AA55E9
:1011E000AA05F07F7F7F3FC3FCFFFFFFFFFFFFFFEC
:1011F000FFFFFFFFFFFFFFFFFF88F1FDB03994B64F
:101200006E7676F7FBFBFBFDFBFBE7DFFF1F63BFA3
:10121000DFDF1FD33FDFDF9FFF1F63BFCFF0FFFF85
:10122000FFFF1FE0FFFFFFFFFFFFFFFFF8FEFCF9DE
:10123000FFF8FFF8FAFBFDFFF8FEFCF9FFFFFFFFE8
:10124000FFFFFFFFFFFFFFFFFFFFFFFFFFFFFFFFAE
:10125000FFFFFFFFFFFFFFFFFFFFFFFFFFFFFFFF9E
:10126000FFFFFFFFFFFFFFFF3F3FBFBFBF3F7FFF0E
:10127000FFFFFFFF7F3F3F3FFFFFFFFFFEF9C73F3D
:10128000FFFFFFFFFFFF0F81C0DEDFDFEFE0F0FFBA
:101290007F1F87E1F83E00C0FFFF7F0FFFFF0FF0C9
:1012A000FFFFFFFFE7E0F8FFFFFFFFFFFFEFE3F1C6
:1012B000FCFEFEFEFEE0E0FFFFFFF0E07DBEBFFFB4
:1012C000FFFFFFFFFFFFFFFFFFFFFFFFFFFFFFFF2E
:1012D000FFFFFFFFFFFFFFFFFFFF3FFFFE8FB3BDDD
:1012E000CDF18FB1BD8FF1FDFFFF8FE1F9FD8FB320
:1012F000B5D5F18FA3B585F18FF18EF1DFDF1FD367
:101300001FDFDF1FFF3FDFDF1FDFFFFFFF5F8FD725
:10131000FF1FC3DF1FFF3F5F5F1FFFFFFFF8FFF8E7
:10132000FEFFF8EFE0EAE3F8FFFFFFFFFFF83BFF07
:10133000F8FEFFF8FFF8FBFBFDFF7FBFFFFFFFFF9D
:10134000FFFFFFFFFFFFFFFFFF8FA3BD8DF18EB3F8
:10135000BDCDF18FE1FD8DF1FFFFFEFFFF3F3FBFF0
:10136000FFFFFF7F3FBFFFFF7F7FBFBFBF3F7FFF0D
:10137000FFFFFF3F3FBFBFBFBFBFFFFF01E0FEFF5B
:10138000FF3F03C0FCFFFFE1C0878F1F1FF8F8FF7E
:10139000FF0F01C0DEDFDFDFFFFFFFFFEFEFEFE753
:1013A000F1F8FEFFF3E1E5EFEFEFF7F0FCFFFFE709
:1013B000E0E0EFEFEFEFFFFFFFFFFFFF3FFFFFFF7B
:1013C000FFFFFFFFFFFFFFFFFFFFFFFFFFFFFFFF2D
:1013D0003FFFFFFFFFFFFFFFFFFFFFFFFE01DFE714
:1013E000FBFDFFFF8FB3B5D5F18FE1FD8D710FE1EF
:1013F0008DB3BDCDF1FF01DFE7FBFDFFFEFF3F5FDA
:10140000DF9FFF1FC3DF1FFF1F9FDFFF1ED21FBF16
:101410005F1FDF1F9FFE1FDFDF1FFFFFFFF97BFB4B
:10142000FCFFF8FEFFF8FFF8FEFFFFF8FFF8FFFBF8
:10143000F8FFFBFCE7F07ABBBC3FFFFF85B8FDFF80
:10144000FFFFFF01DFE7FB8DB3BDCDF18FB1BD8F96
:10145000F1FDFFFFFFBDA6FBF9FEFFFF2040FFFFF0
:10146000FFFFFF7FBFFFFFFFFF3F0F07038101016A
:1014700001000000000000010FBFFFFFFFFFFFFFA2
:10148000FFFFD8D043C3C3636130381C86413008A6
:101490000C0000000000040E0E7EFFFFFFFFFFFFA8
:1014A000FFFFFFFFEEC2D8F87C3C0E0701C0E00052
:1014B000000000000000000000004367FFFFFFFF86
:1014C000FFFFFF7F1F8FC3E1F0F8FCFE3F1F0F18E7
:1014D000304080000080FCFEFEFCF8F8F0E1FF9F49
:1014E00007C3E080FFFFFFFFFFFFFFF0C0800000A9
:1014F0000000000001000001010307070F1FFFFFAC
:10150000FFFFFFFFFFFFFFFFFB0303030307070FBF
:101510001E3E7CFCFCFCF8F8F8F0F0E0C000FFFF99
:10152000FFFFFFFFFFFFFF7F3F38F0F0F0F8F0F024
:1015300060000001070F1F1F1F1F0F0F0380DF9F99
:101540000F0F0F070301000080808183C7C7C3E02E
:10155000E0F0F0F8F8FCFCFCFCFEFEFFFFFFFFFFF4
:10156000FFFFFFFFFF7F7FFFFFFF7F7FFFFFFFFF8B
:10157000FFFFFFFFFFFFFFFFFFFFFFFFFFFFFFFF7B
:10158000FFFFFFFFFFFF00CFF3F93E87F3FB1BC315
:10159000FF7F07E3FF1F83FBFFFFFFFF3F03FFFF0B
:1015A000FFFFFFFFFFFCFEFFFFFFFCFDFDFCFEFF5A
:1015B000FFFCFDFDFCFCFFFFFFFFFFFFFCFC230F1A
:1015C0001F7FFFFF7F0F437B7F3F07F37F3FDFDFFF
:1015D0001FFF1F1FFFFF3F9FFFFFFFFF7FBF3F7EDC
:1015E000E0FEFFE7F0FEFFEFE1F8FFF3E0EEE6F2EA
:1015F000FE3F98E0F1FCFFFFFFFFFFE3E9EE000094
:101600000003FFFFFF7F1FFFFFFFFFFFFFFFFFFF45
:10161000FFFFFFFFFF3F9FFFFFFFFFFFFFFFC0E058
:10162000F0FCFF1FC3F80F617C3E86F0FF0F617C6A
:101630003E86F01FC3E00339FCFEFFFFFFFFFFFF04
:10164000FFFFFFFFFFFFFFFFFFFFFFFFFFFFFFFFAA
:10165000FFFFFFFFFFFFFFFFFFFFFFFFFFFFFFFF9A
:10166000FFFFFFFFFFFFFFFFFFFFFFFFFFFFFFFF8A
:10167000FFFFFFFFFFFFFFFFFFFFFFFFFFFF7F9F5A
:10168000E7037F9FC7730BE37E07E3F71B83FFFF2F
:10169000FFFFFFFFFFFFFFFFFFFFFFFFFFFFFEFF5B
:1016A000FFFCFEFFFFFCFFFFFCFFFFFDFCFFFFFF59
:1016B000FFFFFDFDFFFFFDFDFFFFFDFDFFFFDFDF86
:1016C0001FFFFFDF1FC7D7FFFFFFFFFF7F0F633F36
:1016D000DFDF1FFF7FBFDFDF1FFFFF3F1FDFE6E012
:1016E000FCFFFFE1ECFFFFFFFFFFFFE3F8F3E0EE9D
:1016F000E6F2FEE3E9EEE6E0FCFFE3EAEEE0FFFF00
:101700003F9FFFFFFFFFFFFFFFFFFFFFFFFF3FBF09
:10171000FFFF3FBFFFFFFFFFFFFFFFFFFFFF1F03B5
:10172000783E86E0FF9F03713696F0FF0E60FEFE66
:101730000E60FEFE9F03713696F01FC1F8FEFFFF9C
:10174000FFFFFFFFFFFFFFFFFFFFFFFFFFFFFFFFA9
:10175000FFFFFFFFFFFFFFFFFFFFFFFFFFFFFFFF99
:10176000FFFFFFFFFFFFFFFFFFFFFFFFFFFFFFFF89
:10177000FFFFFFFFFFFFFFFFFFFFFFFFFFFFFFFF79
:10178000FFFFFFFFFFFFFFFFFFFFFFFFFFFFFFFF69
:10179000FFFFFFFFFFFFFFFFFFFFFFFFFFFFFFFF59
:1017A000FFFFFFFFFFFFFFFFFFFFFFFFFFFFFFFF49
:1017B000FFFFFFFFFFFFFFFFFFFFFFFFFFFF9F9FF9
:1017C000FFDF1FC7D7FFFFFFFF1F1FFFFF3F9FFF69
:1017D0003F9FDFDF1FFFFF3F1FFFFF1FDFFFF9FFFF
:1017E000FFE1ECFFFFFFFFFF3F98E0F1FCFFFFE1AF
:1017F000ECEFE7F0FEFFE3E8EFE7E0FCFFFFFFFFC1
:10180000FFFFFFFFFFFFFFFFFFFFFFFFFFFFFFFFE8
:10181000FFFFFFFFFFFFFFFFFFFFFFFFFFFFFEFFD9
:10182000FFFF1FC1F87D06E00F617C3E86F0FFFFE1
:101830000F009FE7F9009FE7F1FCFEFFFFFFFFFFAE
:10184000FFFFFFFFFFFFFFFFFFFFFFFFFFFFFFFFA8
:10185000FFFFFFFFFFFFFFFFFFFFFFFFFFFF204036
:10186000FFFFFFFFEF0FFF7F3FCFEF7F7F7F7FFF08
:10187000FFFF7FFFFF7F7FFFFFFFFFFFFF7FFFFF78
:10188000FFFFFFFF9FC0F9FEFF87B0BE9FC3F8FFB9
:101890008FA0BC9F83F0FFFFFFFFFFFF8780CFF388
:1018A000FFFFFFFFFFFFFFFFFFFFFFFFFFFFFFFF48
:1018B000FFFFFFFFFF7FFFFFFFFFFFFFFFFFFFFFB8
:1018C000FFFF7F2FD7DB1B83FFFF3B83F8FAFFFF70
:1018D000FFFF7F0FE17C0FC7DB5BC37F2FD7DB1BD5
:1018E000FFFFFCFDFDFCFCFFFFFFFCFDFFFFFFFF1A
:1018F000FFFFFCFFFFFEFCFDFCFEFFFCFDFDFCFC12
:10190000FFFFFF3F9FDFDF1FFFFF3F1FBFDF1FFF07
:10191000FF7F3FDFDF1FFFFFFFFFFF7FBFDFDF1F17
:10192000FFFFE1ECEFE7F0FEFFE3F8FFEFE0FCFF85
:10193000F3E0EEE6F2FEFFFFFFFFE3E9EEE6E0FC98
:10194000FFFFFFFFFFFFFFFFFFFFFFFFFFFFFFFFA7
:10195000FFFFFFFFFFFFFFFFFFFFFFFFFFFFFFFF97
:10196000FF7FFFFFFF7F7F7FDFFF7FFF7F7FFFFF27
:10197000FFFFFFFFFFFFFFFFFFFFFFFFFFFFFFFF77
:10198000FC80CFF3F88EE1FC8FE0FCBE83F0FFFF1C
:10199000FFFFFFBFBFFFFFBFBFFFFFBFBFFFFFFFD7
:1019A000FFFFFFFFFFFFFFFFFFFFFFFFFFFFFFFF47
:1019B000FFFFFFFFFFFFFFFFFFFFFFFFFFFFFFFF37
:1019C00083FF7F47C31B33F3FF3B83F8FAFFFFFF1F
:1019D000FFFF03033F9FE7F33F87F3FB1BC3FF7F3B
:1019E000FFFFFCFDFDFCFFFFFFFCFDFFFFFFFFFF16
:1019F000FFE7F3FCFEFFFFFFFCFDFDFCFEFFFFFC2D
:101A0000FFFF7F3FDFDF1FDFFF7FBFDFDF1FFFFF46
:101A10007F1FF73F1FBFDF1FFFFFFFFFFFFFFFFF1E
:101A2000BF23606F87E0FEFFE3E9EEE6E0FCFFE343
:101A3000F8FFE3F8FFEFE0FCFFFFFFFFFFFFFBF91C
:101A4000FFFFFFFFFFFFFFFFFFFFFFFFFFFFFFFFA6
:101A5000FFFFFFFFFFFFFFFFFFFFFFFFFBFBF9F9AA
:101A6000FF1F0FFF7F9F0FCFFF3F8FEFFF7F7F7F16
:101A7000FFFF3F8FFF3F8FFFFFFFFFFFFFFFFFFFD6
:101A80009F80C6F1FC8780C3F8FECF81B89BCBF85E
:101A90008FE1FC8FE17C1FDFFFFFFFFFFFFFFFFFF8
:101AA000FFFFFFFFFFFFFFFFFF7FFFFFFFFFFFFFC6
:101AB000FFFFFFFFFFFEFFFFFFFFFFFFFFFFFFFF37
:101AC00007E3FF1F83FBFFFFFCFF7F07E3FB7B0FA9
:101AD000C7DB5BC3FFFFFFFFFF3F07010000010102
:101AE000FDFDFCFCFFFFFFFFFFFFFC7F7F3F3E1C77
:101AF0001D1C0E0F0F07070701000000000000006B
:101B0000FF7F3F1F0F47E7E3E101000000000000F7
:101B100000000000000080808080C0C0C0C0C0C045
:101B2000F8F8F0F0E0606141000000000000000003
:101B300000000080C0703F070000000000000000AF
:101B4000F9F8F8F8F8F8F8F8F8F8F0F0F0F8F8F82C
:101B5000FCF6F7F3F1F0F0F0F0F0F0F0F8F8F8F848
:101B6000FFFFFCF9F1C3830307070F0F0F1F1F3F90
:101B70003F7F7F7FFFFFFFFFFFFFFFFFFFFFFFFFB5
:101B8000FFFFFFFFFFFFFFFF9C8080C0C0C0C0C001
:101B9000C0C0C0C0C0C0C1C1C383871F7FFFFFFFDB
:101BA000FFFFFFFFFFFFFFFFFFFFFFFFFFFFFFFF45
:101BB000FFFFFFFFFFFFFFFFFFFFFFFFF83F0107F2
:101BC00001030303030303030101010101012131A7
:101BD000393D3F3F1F1F0F0F0707030180C070FEF5
:101BE00000000000000000000000000000000000F5
:101BF00000008080C0C0603038180C0603C1F8FFB8
:101C00004060606060203030101818080C0C060628
:101C1000030301010000000080E0F0FCFFFFFFFF74
:101C20000000000000000000000000808080C0E094
:101C3000E0F0F0F87C7CFEFFFFFFFFFFFFFFFFFFFF
:101C4000F8F8FCFCFCFCE6C6C68383010180C0E01A
:101C5000F0F8FCFEFFFFFFFFFFFFFFFFFFFFFFFFAE
:101C60002040000000F8F8C0E0381880F0F88888BC
:101C70000800E0F0988838300000000000C0F80844
:101C800000000000001F1F010000181F17101000A7
:101C9000081C14111F0F02000000001014070000A0
:101CA0000000000040E0704080F878C0C00080C0B4
:101CB00040C0800000000080C040C0C00080C04024
:101CC000C08000001F17001C1F01181F030C1F13EA
:101CD0001A0B01000040CC9FF17C0F01181E121E50
:101CE0000F010000C0C00080C04080C040C0800024
:101CF00080C00080C000303808C0C00080C0408074
:101D0000C04000C0FF3F0E03000C1F111C0F011C40
:101D10001F11181F03000000001F1F1C07010C1FCC
:101D2000131A000080F878C0C00080C040C0800056
:101D300080C040C0F818C0C00080C04000000080D3
:101D4000F878001C1F111C0F010C1F111C0F011C27
:101D50001F111C0F01C0FF3F0E03000000001C1FDD
:101D6000111C00C0C00080C04080C040C080008006
:101D7000C00080C000303808C0C00080C04080C0B3
:101D800040C0C0FF3F0E03000C1F111C0F011C1FA1
:101D900011181F03000000001F1F1C07010C1F1358
:101DA0001A0B0080C040C0C000C0C00080C040C04E
:101DB000800000000000C0F038F8F8000080F0F863
:101DC000F800181F03181F03181F030C1F131A0B0A
:101DD000010000101C0F07041C1F0000181F031E29
:101DE0001F1FC0800000000080C040C0C00080C035
:101DF00040C0800040E07040000000C0C00080C0D3
:101E000040800B01000040CC9FF17C0F010C1F11A2
:101E10001C0F01001F1700000000C0FF3F0E030051
:101E20000C1FC0C00080C040C0800080C040C08087
:101E30000080F83880400000000000C0F808000072
:101E400000000F01181E121E0F010C1F110C0501BE
:101E50001C1F071F190000000010140700000000DD
:101E600000008000000000C0C00080C0C000C0C0F2
:101E70000080C040C0800080C040C0C000000000A2
:101E8000000001000000001F1F0E031F1D0E0300B5
:101E90000C1F111C0F011C1F01181F030000000064
:101EA0000000E0F80880F0780888F8700000000072
:101EB0000000000000000000000000000000000022
:101EC00000000700181F1710180F03000000000083
:101ED0000000000000000000000000000000000002
:101EE0000000C040C0800080C00080C00080C040B2
:101EF00040000000000000000000000000000000A2
:101F00000000111C0F011C1F11181F031C1F0100D2
:101F100000000000000000000000000000000000C1
:101F200000C00000000000000000000000000000F1
:101F3000000000000000000000000000000000C0E1
:101F4000FCFF000000000000000000000000000096
:101F50000000000000000000000000000000060F6C
:101F60001F1F001038F8F8D8981898F8FEFEFFFFE9
:101F7000FFFEFEFCF000000000000000000000007A
:101F80000000000000000103031FFFFFF3EFEFEF6D
:101F9000F7FBFFFF7FFFFCE00000000000000000F7
:101FA00000000000000000000080DFBF7F7F7FBFD7
:101FB000DF9F070100010F3F7CF0C08000000000A0
:101FC000000000000000E0F8FEFFFFFFFFFFFFFF42
:101FD000FFFFFEF8F0C0000000000103070E0C1C1C
:101FE00018180080F8FFFFFFFFFFFFFFFFFFFFFF54
:101FF000FFFFFFFFFFFFFFFCF0C00000000000003C
:102000000000FCFFFFFFFFFFFFFFFFFFFFFFFFFFE1
:10201000FFFFFFFFFFFFFFFFFFFFFFFCF08000005F
:102020000000FFFFFFFFFFFFFFFFFFFFFFFFFFFFBE
:10203000FFFFFFFFFFFFFFFFFFFFFFFFFFFFFEF8B8
:10204000C0001F3F3F7F7F7FFFFFFFFF7F7F7FFF3E
:10205000FFFFFF7F7F7F7F7F7F7F7F3F3F1F1F0FC0
:1020600007032040FFFFFFFFFFFFFFFFFFFFFE0012
:102070009FE7F37C0EE7F73787FFFF0FC7FF3F07A8
:10208000F7FFFFFFFFFFFFFFFFFFFFFFFFFFF9FC71
:10209000FFFFFFF8FBFBF9FCFFFFF8FAFBF9F8FF85
:1020A000FFFFFF7FFFFFFFFFFFFFFFFFFFFFFFFFC0
:1020B0004FBF1FDBF72DF72DFBAF5BF70F570CBFA3
:1020C00088FFB849FFFF7F7F870F0F7F1B2C1728E2
:1020D000176B970C1B251F6B9C73A87BCCBF6FB431
:1020E0006BDEA3387800FCCC39F828F8AC74AED895
:1020F0002CD877007320000000000000010001C010
:1021000071D030D9FCE3E7860D030102050300819D
:1021100000C1E0A060A0C000E0E000C0E020C0F688
:10212000AB000100FFFFFFFFFEF8FCF8F8F09C0792
:102130001F4B360F3F567F977FAEFB0F320D0A07BE
:102140000C030600FFFFFFFFFFFFFFFFFFFFFFFF86
:10215000FFFEFEFCFCFCFCF8F8F9F8F1F0F0F0F002
:10216000F0F0E0E0FFFF1FC3780FE7F73787FFFFCE
:102170008F873767E7FF1F8FB7B787FFFFFFFFFF27
:102180003F83D0DEFF78FEFFF8FBFBF9FC3FFFF852
:102190003A7B78FE7FFCB87BF9BCFF3FFFBF7FF93D
:1021A00038FFFF7FF893F221C6B17F8E1187940B21
:1021B000050B06083209360F140F040F0607071720
:1021C0000D160D0B6FB0CFBB6CD37D866DE2F7396A
:1021D000EF3BCE363E0C1C080080C0C0E0F0F0D8CB
:1021E000BCFCEE3B7BAC5FEC33ED1BF601E1A040A9
:1021F00045C3C0F1F0FCF6FFEBFDF7FAEFFB75FF0E
:10220000BF7ECD3B00100B0601030017010609B786
:10221000557F7FFFFFFFFFFFFFFFFFFFFFFFFFFE79
:10222000730D7F02000040A0F050F0B050F011E0BC
:1022300010B040D1A0A120C1018701030183410654
:1022400081000080E0C0808D828F008F0007012216
:1022500001060D02068102010E01060006011F00A3
:102260002F003F00DEDEFE1FC7FD8F873767E7FFC9
:102270001FC1EC7707FFFF8F873767E7FF7707F10D
:10228000F5FF1FC7FF7FF8FE7FF8FAFB78FEFF78A7
:10229000FEFFFBF8FFFFF8FAFBF8FEFFFFF8FBFF7D
:1022A000FFF8FEFF9C87D96AF37ED2BFF8A9FAEF48
:1022B000FCFB3FDAFF32CD7B0F201F53BF5AF31FC9
:1022C000F7BF7FCFCFFFADFFBFCD7EDBBE73CF7734
:1022D000DFB4DF375F356F004040408040C0816031
:1022E000CD6A7DC3EEBBEC9376DD335E250B070C28
:1022F00003020110000000000000000800422CD082
:102300003CD3FD3F1F0001000108045C3448B07855
:102310008878B8F838F8E8F0800000000000000085
:10232000858B874300800800100C932C132C1B65B1
:102330001A671CAB350F1D8356B040F030C0B0D1CA
:10234000B070F1F00E0017001F00060C800DA00009
:1023500010038007B00F020DB2053B459B0689466E
:10236000B96FD3FFFD1FCFF7F7C7FF1F011CCFE7E2
:10237000F7FFFFFFFFFFFF1F81F8FFFFFFFFFFFFDA
:10238000FFFFFFFFFCF8FBF9FCFFF8FEFFF8F9FF89
:10239000FFFFFFFFFFFFFBFAFFFFFFFFFFFFFFFF56
:1023A000FFFFFFFF3FCFBB2FEB9F63DF2BD77FEFFD
:1023B000FFFFFFFFFFFFFFFFFFFFFFFFFFFFFFFF2D
:1023C000FFFFFFFF84030C039C03808324D3BDFF26
:1023D0003FFF5FFF7FFFFFFFFFFFFFFFFFFFFFFFED
:1023E000FFFFFFFFFFEF00D8387C7CFC7EFE5EDB4A
:1023F00055D991D8CDBFFF9DCFCFC7CFCFFFFFFF1E
:10240000FFFFFFFFC040C0C0C0C0C0C0C1C0C1C04E
:10241000C1C0C1C1E1E1E1C101010100C170F87FAA
:10242000FFFFFFFFE1020100010001020D020D03A9
:102430000E152B55BF55FFFF3FFCC1E3C0F7FEFD56
:10244000FFFFFFFFFFEBF0F0F0F0F0F8F8F8F8F81E
:10245000F8FCFCFCFEFFFEFFFFFFFFFFFFFFFFFF9E
:10246000FFFFFFFFD5F08D14A1C881CFD9F1AF20B8
:1024700000F0F89C8E8783878E9CF8F00000FEFFAA
:102480000303030303070EFCF80000FEFF0303032E
:102490000303070EFCF80000FFFF0000000000002F
:1024A00000FFFF0000FEFF8383838383C7EE7C3839
:1024B0000000F8FC0E07030303070EFCF800003FC2
:1024C0007FE0C08080C0E07F3FFFFF01010101018C
:1024D0000101FFFF0000FFFF0C0C0C0C1C3E77E31A
:1024E000C100007FFFC0C0C0C0C0E0703F1F00003F
:1024F0001F3F70E0C0C0C0E0703F1F00007FFFC101
:10250000C1C1C1C1E3773E1C00001F3F70E0C0C0E5
:10251000C0E0703F1F000000000001FFFF0100004D
:1025200000A71A651A5C1ACE19411ABF1A391F6E14
:102530001BAF194A19080B0002020200000904002F
:102540000001020200000524001001052401010120
:10255000042402060524060001070581031000403B
:1025600009040100020A0000000705020240000001
:10257000070583024000000403090412010002EF72
:1025800002014041233680000101020301417264CF
:1025900075696E6F204C4C430041726475696E6FB3
:1025A000204C656F6E6172646F00C62211241FBEDD
:1025B000CFEFDAE0DEBFCDBF11E0A0E0B1E0E8E3AD
:1025C000FDE402C005900D92AC32B107D9F725E0C9
:1025D000ACE2B1E001C01D92A13EB207E1F712E109
:1025E000C6EDD2E104C02197FE010E949426C53DAC
:1025F000D107C9F70E94EB220C949A260C94000094
:1026000080914C01089580E0E1E8F1E081118FEFC5
:10261000002481938193819381930394D1F708954A
:10262000E1E8F1E0A0E0B8E000800EBC8111012CEF
:102630001197A0FDFDCF0192B9F70DB40895803830
:102640009105A8F46034710590F490E121E061FDFA
:1026500024E060FD220F62FD2295687F969FD001E5
:102660001124A80FAF57BE4F8C91822B8C930895E5
:10267000EF92FF920F931F93CF93DF937C018B0117
:10268000040F111DEB0177FF02C0D0E0C0E0C801CC
:102690000134110514F080E490E0C817D90734F430
:1026A000BE01C7010E941F132196F1CFDF91CF9188
:1026B0001F910F91FF90EF9008952F923F924F92AC
:1026C0005F926F927F928F929F92AF92BF92CF92C2
:1026D000DF92EF92FF920F931F93CF93DF9300D07F
:1026E0001F92CDB7DEB77C015B016C50710949E1E7
:1026F0000E94381366246394712C10E000E02CE0F3
:1027000030E03B832A8398EE292E33243A9425EF38
:10271000C22EDD24DA940F5F1F4F22E0620E711C7F
:10272000C60CD71C8A81880F8F5F8983482F2501AB
:102730008A819B81481A590AB201C8018E0D9F1DDA
:102740000E9438134501801A910A462DB4018A81EE
:102750009B818E0D9F1D0E9438134981B201C701D4
:10276000801B910B0E943813462DB401C7012A81AA
:102770003B81821B930B0E9438138A819B8108172F
:102780001907B4F00F900F900F90DF91CF911F9128
:102790000F91FF90EF90DF90CF90BF90AF909F9000
:1027A0008F907F906F905F904F903F902F90089503
:1027B000D7FCB1CF8A819B8101979B838A8392E06A
:1027C000290E311CC20CD31CA6CFFC0180917B01C9
:1027D000882311F13FB7F89482E08093E9002091BB
:1027E000F200822F90E01816190614F481E090E0B0
:1027F000882339F0289844E640937A014091F1000B
:102800004083222339F02091F200211103C02BE6EE
:102810002093E8003FBF08958FEF9FEF08952FB7F3
:10282000F89483E08093E9009091E800892F80720A
:1028300095FF04C09091F20080E4891B2FBF08959A
:102840008091720181110DC082E080936E0184E05D
:1028500080936F01109271011092700181E080935A
:1028600072018EE691E00895CF93DF931F92CDB76A
:10287000DEB76983DC01ED91FC910280F381E02DEC
:1028800041E050E0BE016F5F7F4F09950F90DF91EF
:10289000CF91089583E08093E9008091F20088232E
:1028A00019F08AE38093E80008950E940F1490E0E5
:1028B0000895CF93DF931F92CDB7DEB7FC018485D7
:1028C000958597FD08C02FEF3FEF358724870F9040
:1028D000DF91CF910895CE0101960E94E5130197F3
:1028E00019F4898190E0F3CF8FEF9FEFF0CF0F9332
:1028F0001F93CF93DF931F92CDB7DEB78C01FC01FE
:102900008485958597FF0BC0CE0101960E94E51343
:10291000019771F4898190E0F80195878487F80127
:10292000848595850F90DF91CF911F910F91089528
:102930008FEF9FEFF1CFFC018485958597FD0BC04C
:102940009FB7F89482E08093E9008091F2009FBFE6
:1029500090E0019608959FB7F89482E08093E90093
:102960008091F2009FBF90E00895409168015091DE
:102970006901209166013091670142175307B4F451
:102980009091E8009570E1F39091E80092FD19C0F4
:102990008093F100809168019091690101968F7395
:1029A0009927892B19F48EEF8093E80080916801B4
:1029B000909169010196909369018093680181E08B
:1029C000089580E00895DF92EF92FF920F931F9396
:1029D000CF93DF93D82E8A01EB017B01E40EF51E25
:1029E000CE15DF0559F0D7FE12C0FE0184910E947A
:1029F000B51421968111F4CF0FEF1FEFC801DF91BD
:102A0000CF911F910F91FF90EF90DF9008958881F3
:102A1000EECF0F931F93CF93DF931F92CDB7DEB707
:102A200082E0898342E450E065E375E280E80E9439
:102A3000E3140E942014DC0112960D911C910115E3
:102A4000110589F0D801ED91FC910280F381E02D10
:102A5000BE016F5F7F4FC801099597FD04C0F80163
:102A600000851185ECCF89810F90DF91CF911F9167
:102A70000F910895615030F02091F100FC01208306
:102A80000196F8CF289884E680937A0108953FB79D
:102A9000F8948091620190916301A0916401B091DA
:102AA000650126B5A89B05C02F3F19F00196A11D11
:102AB000B11D3FBFBA2FA92F982F8827BC01CD0188
:102AC000620F711D811D911D42E0660F771F881FE7
:102AD000991F4A95D1F708958F929F92AF92BF9216
:102AE000CF92DF92EF92FF926B017C010E9447151B
:102AF0004B015C01C114D104E104F104B9F00E945E
:102B00004715681979098A099B09683E7340810550
:102B1000910580F321E0C21AD108E108F10888EE9E
:102B2000880E83E0981EA11CB11CE4CFFF90EF90AB
:102B3000DF90CF90BF90AF909F908F9008958F922D
:102B40009F92AF92BF92CF92DF92EF92FF920F933C
:102B50001F93CF93DF936C017B018A0180910E015B
:102B6000882309F45CC080917B01882309F457C055
:102B700080916D0180FF05C08091E00082608093AC
:102B8000E000E801B12C8AEFA82E93E0892E2AE319
:102B9000922E209711F4BB20D9F10E940F148111BD
:102BA0000AC0AA94AA20D9F161E070E080E090E028
:102BB0000E946C15EECF8C171D0611F00CF08C2FB7
:102BC0009FB7F8948092E9002091E80025FD02C0AB
:102BD0009FBFDFCF282F30E0C21BD30BF7018150FE
:102BE00020F041914093F100FACFE20EF31EBB209A
:102BF00021F09092E800B12CEBCF8091E80085FDA8
:102C0000E7CF9092E800BB24B394209709F3F3CF69
:102C10005D9884E680936C01101611063CF081E00B
:102C200090E0F6019383828310E000E0C801DF9119
:102C3000CF911F910F91FF90EF90DF90CF90BF90B9
:102C4000AF909F908F90089520918001E0917E0138
:102C5000F0917F01CF01029690937F0180937E01D6
:102C6000222319F08591949108958081918108958E
:102C7000CF92DF92EF92FF92CF93DF930E942416C0
:102C8000811520E8920791F4809171008D7F8093E7
:102C90007100109291004698479810924F01DF9171
:102CA000CF91FF90EF90DF90CF90089521E0209397
:102CB0004F01813020E8920751F480917C0190917E
:102CC0007D0190937F0180937E010E94241697FDE1
:102CD00005C020914E01222309F454C020914D01DA
:102CE000211150C021E020935001EC01DF772097A3
:102CF00009F04BC081E08093510146983FE9C32E13
:102D00003FE0D32EE12CF12CCAEFD0E0E091DF05BB
:102D1000F091E0050995811103C081E08093510194
:102D200080915001882329F080915101882309F472
:102D30003FC047980E9424160097F1F19C01DE01E4
:102D40000E948526DC01CB0129E0B595A7959795D2
:102D500087952A95D1F7109290002AE02093910050
:102D6000D0929900C09298008093520190935301A1
:102D7000A0935401B09355018091710082608093BB
:102D800071008DCF10925001B0CF9E0150E040E015
:102D900060E472E48FE090E00E94312669017A01DC
:102DA00081E0C81AD108E108F10810925101AECFB4
:102DB0004699BFCF479ABECF8FEF9FEFDC01CBCFB5
:102DC0009C01E1E7F0E090819D7F9083109280016B
:102DD000E1EDF5E0F0937F01E0937E01F0937D015A
:102DE000E0937C013183208384E690E093838283A7
:102DF00080E090E8958384830C9438162F923F925C
:102E00004F925F926F927F928F929F92AF92BF92FA
:102E1000CF92DF92EF92FF920F931F93CF93DF93A6
:102E200000D000D01F92CDB7DEB75D834C8359012F
:102E3000EC2D402F50E0DA01A80FB91F109709F4CC
:102E400045C0803891050CF041C09B012E0D311D0D
:102E5000232BE1F160347105CCF52C813D81232BCE
:102E6000A9F1362F3770398313E0759567951A9558
:102E7000E1F7262FA038B10514F000E8081BA1E007
:102E8000FE2DF77009F4A0E0E694E694E694EA0ECD
:102E9000DB01AE0DB11D19971CF0F8E0EF2EE61A1C
:102EA000DB01B695BA2FAA27B795A7958A0F9B1F66
:102EB000F980AF2DFF0CBB0BE33009F435C1F0F402
:102EC000E13009F4EEC0E23009F453C00F900F90E6
:102ED0000F900F900F90DF91CF911F910F91FF9066
:102EE000EF90DF90CF90BF90AF909F908F907F90AA
:102EF0006F905F904F903F902F900895EA3F09F4B4
:102F00008CC0EB3F19F7E22FE61BEE15F8F6FC013B
:102F1000EF57FE4F6F01B12CA12CEC81FD81A01663
:102F200008F0ACC0EA0DFB1D8490912C0A2E02C063
:102F3000880C991C0A94E2F727FD07C0F6017080FF
:102F4000F82DF0957F22F6017082F980FF2051F074
:102F5000273044F4F601E058FF4F892C809490808C
:102F6000982090821FEFA11AB10A3FEFC31AD30A2B
:102F7000D4CF66246A94712C098002C0660C771C39
:102F80000A94E2F760947094572CE22FE61BEE153A
:102F900008F09CCFFC01EF57FE4F6F01B12CA12C24
:102FA000EC81FD81A01650F5EA0DFB1DE491F0E0E7
:102FB0001F010A2E02C0220C331C0A94E2F727FDDF
:102FC00005C0F6019080962092289082F980FF201B
:102FD00071F0273064F4460110E8810E911CF40171
:102FE0004080E42DE5214E2E4328F4014082FFEF7E
:102FF000AF1ABF0A1FEFC11AD10AD2CFE40FF51FD3
:10300000FD83EC8380589F4F2F5FBFCFE40FF51FE8
:10301000FD83EC8380589F4F2F5FE22FE61BEE1558
:1030200008F054CFFC01EF57FE4F6F01B12CA12CDB
:10303000EC81FD81A01650F7EA0DFB1D8490912CC8
:103040000A2E02C0880C991C0A94E2F727FD04C0DE
:10305000F601708078287082F980FF2041F02730D7
:1030600034F4F601E058FF4F8080982890821FEFDB
:10307000A11AB10A3FEFC31AD30ADACFE40FF51F42
:10308000FD83EC8380589F4F2F5F3DCFEC81FD8106
:10309000E40FF51FFD83EC83A40EB51E80589F4FEF
:1030A0002F5FE22FE61BEE1508F010CFFC01EF5763
:1030B000FE4F6F01912C812C801640F7F501E80D31
:1030C000F91D6490712C0A2E02C0660C771C0A94BC
:1030D000E2F760947094EC81FD81E80DF91D449055
:1030E000512C0A2E02C0440C551C0A94E2F727FD0D
:1030F00008C0F6013080E32DE6213E2E3428F6018B
:103100003082F980FF2049F027303CF4F601E05886
:10311000FF4F60807620752870821FEF811A910A18
:103120003FEFC31AD30AC8CFE02FF0E08F579E4F6E
:10313000A0E8B0E06D01CE1ADF0A4E1B5F0B4A011A
:10314000880C991CE1E0F0E05F01098002C0AA0C44
:10315000BB1C0A94E2F7B02E402F5E2DEC81FD815E
:10316000DC0186019401F980CF93DF93ED01EF96A6
:10317000EF96229665908590FF2059F06A9C300169
:103180008A9C400167302CF4C8809094C920C728DD
:10319000C99266233AF0CC908094C820C628CD927C
:1031A0000C94D31811964A9529F75A9551F04B2D46
:1031B00063951124E20FF11DA00FB11DC00FD11DA9
:1031C000D9CFDF91CF91112481CECF92EF920F937F
:1031D000CF93DF93DC01FA0104913196E4904E5FC6
:1031E0005F4F2223D1F0C1E0D0E09E2D977011F403
:1031F000D0E0C0E0EE2DE695E695E695EC0FFD2FCC
:10320000F11D0E9FE0010F9FD00D11242C9FC001D6
:103210002D9F900D1124480F591F8AEFC82E30E0C2
:1032200020E0CD010E94FE16DF91CF910F91EF902B
:10323000CF9008952D9A0895BC0190E080E00C9401
:103240006C158FB18095807F669B88601C9B846025
:10325000089510924C013E983F9808953E9A3F9AE7
:1032600081E080934C01089590915A01982329F4AC
:1032700090915B01982381E009F480E00895CF9359
:10328000C82F0E942119982F9C2381E09C1380E075
:10329000CF9108950F931F93CF93DF93D0914A015D
:1032A00080914B018D1310C010E000E0C0E02C2F86
:1032B00042E650E270E060E0C8010E94E518CF5F8E
:1032C000005E1F4FC43099F780914901D81307C0A1
:1032D00080914801813009F178F0823079F18CE0F9
:1032E0000E943419882319F081E080935C01DF91FA
:1032F000CF911F910F91089510E000E0C0E02C2FB6
:1033000040E65CE170E060E0C8010E94E518CF5F34
:10331000005E1F4FC43099F7E2CF10E000E0C0E03C
:103320002C2F4EE558E170E060E0C8010E94E518DE
:10333000CF5F005E1F4FC43099F7D1CF10E000E09F
:10334000C0E02C2F4CE554E170E060E0C8010E9421
:10335000E518CF5F005E1F4FC43099F7C0CF0F93C1
:103360001F93CF9310E000E0C0E02C2F4AE550E11E
:1033700070E060E0C8010E94E518CF5F005E1F4F5B
:10338000C43099F788E00E943419882319F087E047
:1033900080935C01CF911F910F9108956F927F925E
:1033A0008F929F92AF92BF92CF92EF920F93CF9353
:1033B000DF93B12CA12CC0E02C2F46ED5AE070E039
:1033C00060E0C5010E94E518CF5F80E2A80EB11C45
:1033D000C43091F7C09101012C2F48ED5EE067E108
:1033E00070E08DE390E00E94E51895E0A92EB12CE5
:1033F000D0E024E7622E2AE0722E35E7832E3AE0F1
:10340000932ECD17A1F0F3010491F401E49083E031
:10341000C82E30E020E046E75AE063E270E0C501E4
:103420000E94FE16DF5FF1E1AF0EB11CEACF80EC27
:103430000E943419882329F0C73018F4CF5FC09355
:10344000010180E30E943419882339F08091010141
:10345000823018F081508093010184E00E94341979
:10346000882319F086E080935C01DF91CF910F9162
:10347000EF90CF90BF90AF909F908F907F906F9084
:10348000089520E040EA53E064E070E08EE090E0D0
:103490000E94E51821E040EA53E064E070E080E437
:1034A00090E00E94E5188CE00E943419882319F0FE
:1034B00081E080935C0108958CE00E943419882398
:1034C00019F081E080935C0108950F931F93CF93CF
:1034D00010E000E0C0E02C2F42EF56E070E060E02A
:1034E000C8010E94E518CF5F005E1F4FC43099F7F6
:1034F000C09100012EEF2C0F42E552E068E370E02E
:1035000086E190E00E94E51880E40E943419882347
:1035100029F0C53018F4CF5FC093000180E20E940B
:103520003419882339F080910001833018F08150DC
:10353000809300018CE00E943419882321F080914F
:10354000000180935C01CF911F910F910895CF935B
:10355000C0912C01CF5FC0932C0120E04CEA50E0D9
:1035600064E070E082E290E00E94E518CB3528F03C
:1035700010922C0181E080935C01CF9108950F930C
:103580001F93CF9310E000E0C0E02C2F42EF56E0F5
:1035900070E060E0C8010E94E518CF5F005E1F4F39
:1035A000C43099F720914C014EE556E068E370E095
:1035B0008BE190E00E94E51880E40E9434198111AB
:1035C0000E942E1980E20E94341981110E9429194B
:1035D0008CE00E943419882381F0C0914C0182E074
:1035E00090E00E941B26C81729F06C2F82E090E023
:1035F0000E94232681E080935C01CF911F910F915F
:103600000895CF92DF92EF92FF9210923D011092B7
:103610003E0197E0C92ED12CE12CF12C80913D0187
:103620008823B1F087E0C82ED12CE12CF12C8091B9
:103630003E0181111AC00E94C325A70196010E9474
:103640003126635071098109910960933E01EFCFE2
:103650000E94C325A70196010E943126635071097B
:103660008109910960933D01D9CFFF90EF90DF90E0
:10367000CF900895CF93DF9360E971E080E090E010
:103680000E946C15109247011092460110922D0174
:10369000E0E4F1E083E08483858390E1908392838A
:1036A00028E1238334E13183EFE2F1E040E6408317
:1036B000318323839283848381E08583C9E3D1E0CE
:1036C0008CE388838CE189831C821D820E94011B0C
:1036D00088E08A838B83DF91CF9108952F923F9268
:1036E0004F925F926F927F928F929F92AF92BF9212
:1036F000CF92DF92EF92FF920F931F93CF93DF93BE
:1037000080914701882309F461C0D0913901C091AB
:103710003A0180913D018D0F8093390190913E01D6
:103720009C0F90933A01843058F480E590E00E9419
:10373000E016D093390180913D01819580933D0140
:103740008091390190913B01890F9927991F8D37FD
:103750009105C4F080E590E00E94E016D093390115
:1037600080912E01811106C080913D018195809349
:103770003D0108C010922E010E94011B80913D0165
:103780001816A4F380913A01843058F480E590E053
:103790000E94E016C0933A0180913E01819580938A
:1037A0003E0180913A0190913C01890F9927991F20
:1037B000813491055CF080E590E00E94E016C093B2
:1037C0003A0180913E01819580933E010E94C3257C
:1037D00020913D01D0913901C0913A0112162CF58A
:1037E000D53118F123E030E040E050E00E9431266E
:1037F00061111BC0909130019C1770F480913201CF
:103800002CE330E0281B3109921713062CF4809129
:103810003401890F8093300180913001C81728F45A
:1038200090913401891B8093300184E00E94341907
:103830000C2F10E00D5F1F4F882399F180912D010F
:10384000843179F52D2F30E02D5F3F4F41E04093DB
:1038500037018091400190914201890F9927991F6A
:1038600028173907F4F0449628173907D4F48091C3
:103870004301869590E020914101280F392F311D99
:103880000217130774F0820F931F081719074CF4DF
:1038900010922D018AE080933D0110923E014093E9
:1038A0002E01D930E8F40C3011055CF48FEA90E079
:1038B0000E94E01680914B018F5F80934B010E9424
:1038C0003A1B8FEC8C0F8C3058F48FEA90E00E94FA
:1038D000E01680914B018F5F80934B010E943A1B51
:1038E000D157DC30E0F40C3011055CF48FEA90E045
:1038F0000E94E016809149018F5F809349010E94E8
:103900003A1BC153CC3058F48FEA90E00E94E01685
:10391000809149018F5F809349010E943A1B009179
:10392000390110E00D5F1F4FC0913A01D0E023969E
:10393000C0904001D12C0C151D050CF46BC0C601C4
:103940004096081719070CF065C0E0904101F12C72
:10395000CE15DF050CF45EC0C7014896C817D9071D
:103960000CF058C001978C179D0724F109978C170C
:103970009D0704F581E0809337018AE08093380148
:1039800080912D01865F853108F0C4C080932D01A0
:1039900084EF91E00E94E01680913D0187FF03C013
:1039A000815080933D0180913E0187FF03C0819546
:1039B00080933E0187E0E80EF11CEC16FD068CF0CA
:1039C00082E390E00E94E01682E0809337018FE06E
:1039D0008093380180913E0118161CF481958093E4
:1039E0003E01C6010A96801791073CF480913D0183
:1039F00087FF03C0819580933D0184E0C80ED11CF0
:103A0000C016D1063CF080913D0118161CF481953A
:103A100080933D01E0902F01F12C0E151F050CF451
:103A200069C0C7014096081719070CF063C0C09021
:103A30003001D12CCC15DD050CF45CC0C6014896D4
:103A4000C817D9070CF056C080912E01882359F071
:103A500010922E010E94011B80913D0118161CF44A
:103A6000819580933D01C60143968C179D07ACF06C
:103A700081E08093350184EF91E00E94E01680910F
:103A80003D0118161CF48F5F80933D0180913E012B
:103A900087FF03C0819580933E0183E0C80ED11C4F
:103AA000CC16DD0674F082E390E00E94E01682E01E
:103AB0008093350180913E0118161CF48195809306
:103AC0003E01C7010A96801791073CF480913D01A1
:103AD00087FF03C0819580933D0184E0E80EF11CCF
:103AE000E016F1063CF080913D0118161CF481951A
:103AF00080933D01E1E8F1E091E8915069F4E1E063
:103B0000F5E091E8915071F08191DF0111978068A3
:103B10008C93F8CF84E13ACF8191DF0111978160D6
:103B20008C93EBCF40E470E060E090E080E00E9496
:103B3000381340E470E060E08FE790E00E943813B3
:103B400040E470E060E080E490E00E94381340E4DC
:103B500070E060E084E290E00E94381340E470E09E
:103B600060E08CE590E00E94381360E370E080E450
:103B700090E00E941F1360E170E080E490E00E94FA
:103B80001F1360E270E080E590E00E941F1360E286
:103B900070E080E390E00E941F1344244394512C72
:103BA00010E000E0C0E1D0E030EE632E77247A949C
:103BB00041EFE42EFF24FA9450E4252E312C0F5FC0
:103BC0001F4F82E0480E511CE40CF51C480180E4B4
:103BD000880E911C6E0180E2C80ED11CB601C40192
:103BE0000E941F135101A01AB10AB601C5010E941B
:103BF0001F1380E2C82ED12CCC1ADD0AB601C401F5
:103C00000E941F13B601C5010E941F13680180E2C4
:103C1000C80ED11CB6015E0180E4A80EB11CC5011E
:103C20000E941F13B6016101CC1ADD0AC6010E9471
:103C30001F1390E2892E912C801A910AB401C501BC
:103C40000E941F13B401C6010E941F130C171D0709
:103C50000CF4FDC070E060E090E080E00E945D1335
:103C600060E470E090E080E00E945D1360E470E04A
:103C700080E890E00E945D1370E060E080E890E0F2
:103C80000E945D13D09149012D2F48ED5EE066E35F
:103C900070E080E390E00E94E518C0914B012C2F6A
:103CA00048ED5EE066E370E08BE490E00E94E5188A
:103CB00080913801882309F4D3C09091370199236A
:103CC00009F4CEC081508093380180913601882359
:103CD00009F4C9C090913501992309F4C4C08150F9
:103CE000809336016091410170E080914001209104
:103CF000370146E15FE090E00E94E5182091350130
:103D00002D5F6091300170E080912F0146E15FE00E
:103D100090E00E94E5188091560180FD08C08091D6
:103D20003F018F5F843008F0A1C080933F01609114
:103D30003A0170E08091390120913F0148E350E160
:103D400090E00E94E51880914A018D1711F08C13C4
:103D50000DC00E94C32523E030E040E050E00E9407
:103D600031266093480189E080935C01809156017F
:103D700080FD10C08091470181110CC080914601E7
:103D80008F5F809346018C3329F481E08093470153
:103D90001092460180E40E943F19882349F09091D7
:103DA0004001943128F480914401890F80934001AF
:103DB00080E20E943F19882349F0809140018530BC
:103DC00028F090914401891B8093400180E80E9473
:103DD0003F19882349F080914101853028F0909166
:103DE0004501891B8093410180E10E943F1988238E
:103DF00049F090914101943228F480914501890F56
:103E00008093410184E00E943419882319F081E0F5
:103E10008093470188E00E943419882329F00E948A
:103E2000031388E080935C01DF91CF911F910F9184
:103E3000FF90EF90DF90CF90BF90AF909F908F90CA
:103E40007F906F905F904F903F902F900895F7FC78
:103E5000B6CE219782E0680E711CE60CF71CAFCE3F
:103E60001092370132CF109235013CCF10923F01B2
:103E70005ECF1092490110924B0180910101809315
:103E80004A010E943A1B87E080935C0108951F92CB
:103E90000F920FB60F9211248F939F938091E100A0
:103EA0009091E100937F9093E10083FF0FC0109207
:103EB000E90091E09093EB001092EC0092E3909374
:103EC000ED0010927B0198E09093F00082FF22C0F9
:103ED00093E09093E9009091F200992319F09AE30E
:103EE0009093E80090916C01992341F090916C01BE
:103EF000915090936C01911101C05D9A90917A015B
:103F0000992341F090917A01915090937A01911107
:103F100001C0289A84FF18C08091E2008E7E8160E3
:103F20008093E2008091E1008F7E8093E100809198
:103F30006D018E7E806180936D019F918F910F90B6
:103F40000FBE0F901F90189580FFF7CF8091E20071
:103F50008E7E80618093E2008091E1008E7E80936E
:103F6000E10080916D018E7E8160E5CF1F920F92FE
:103F70000FB60F921124CF92DF92EF92FF920F9320
:103F80001F932F933F934F935F936F937F938F93E1
:103F90009F93AF93BF93EF93FF93CF93DF93CDB7EF
:103FA000DEB76C97DEBFCDBF1092E9008091E800CC
:103FB00083FF25C068E0CE0145960E943A1582EF46
:103FC0008093E8008D8987FF39C09091E80090FFC9
:103FD000FCCF982F907609F034C19E894F89588D77
:103FE0002F89F88C911131C0803861F580916B0177
:103FF0008093F1001092F1008EEF8093E8006C96B0
:104000000FB6F894DEBF0FBECDBFDF91CF91FF9109
:10401000EF91BF91AF919F918F917F916F915F9140
:104020004F913F912F911F910F91FF90EF90DF9053
:10403000CF900F900FBE0F901F9018959EEF90930A
:10404000E800C7CF1092F100D5CF913059F481111B
:10405000D3CF4130510581F680916B018D7F8093E4
:104060006B01CACF933049F48111C6CF413051055D
:1040700019F680916B018260F2CF953041F4809106
:10408000E80080FFFCCF20682093E300B5CF963096
:1040900009F0A9C00B8D1C8D22E01092E90010924E
:1040A000690110926801F2122EC0109267011092FD
:1040B00066010E9409151F8299E09983FA8291E0B6
:1040C0009E8390EA98879AEF9987209168013091B2
:1040D0006901275F3F4F3C832B838D831092E9005A
:1040E00010926901109268011093670100936601B4
:1040F00049E050E0BE016F5F7F4F80E00E94E31413
:104100000E94091579CF10936701009366010E9400
:104110002014DC0112960D911C910115110509F472
:1041200051C1D801ED91FC910480F581E02DBE01D3
:104130006B5E7F4FC8010995009709F03EC1F801F9
:1041400000851185EACFF3E0FF120EC08F89882326
:1041500009F440C0823061F440E860E189E995E209
:104160000E949322811148CF81E28093EB0047CFD8
:10417000813029F440E86BE08DE895E2F1CF83309F
:1041800099F70E942014DC011296ED90FC908E01AC
:104190000F5F1F4F6801E114F10479F0D701ED9131
:1041A000FC910680F781E02DB801C7010995080F41
:1041B000111DF701E084F184EECFD8011C92F601C5
:1041C00001900020E9F73197BF016C197D0940E0AB
:1041D000C601C6CF67E775E2FB01449150E080E875
:1041E0000E94E31409CF973009F4BECF983021F430
:1041F00081E08093F10000CF993009F0FDCE83700B
:1042000009F0B2CFE4E1F1E081E031E096E3219101
:10421000222371F08093E9003093EB00DF011197C6
:104220002C912093EC009093ED008F5F873079F70D
:104230008EE78093EA001092EA008F8980937B01D9
:10424000DBCE8B8D9C8D1092E9001092690110924B
:1042500068019093670180936601898D811192C0F6
:104260008E899D89913A49F4813209F07DCF47E0EA
:1042700050E067E071E080E0B3CF913209F074CF95
:10428000833269F48F89988DB0E0A0E080930301B8
:1042900090930401A0930501B0930601ADCE803246
:1042A00069F48091E80082FFFCCF67E087E091E04D
:1042B0000E943A158BEF8093E8009ECE823209F07F
:1042C0009BCE8F8980930E01EEEFFFE7859194914D
:1042D0008B3F9C4D51F1E0E0F8E080910701909117
:1042E0000801A0910901B0910A01803B9440A10509
:1042F000B105F1F480910E0180FD1AC0EE3F8AE015
:10430000F80789F587E797E79183808380916000BC
:1043100080936A0188E19BE00FB6F894A89580939A
:1043200060000FBE9093600067CEEEEFFAE0D5CF4D
:10433000808191818737974709F05ECEA89580915B
:10434000600088618093600080916A0180936000C2
:10435000EE3F2AE0F20789F08091FE0A9091FF0A71
:104360009183808349CE808191818737980751F26C
:104370009093FF0A8093FE0AC5CF1092FF0A109215
:10438000FE0A3ACE0E942014DC0112960D911C9177
:104390000115110509F4E8CED801ED91FC910190C9
:1043A000F081E02DBE016B5E7F4FC8010995811140
:1043B00023CEF80100851185EBCF181619060CF4F1
:1043C0001BCED2CEF1E0FF12BECE6BE775E204CF7A
:1043D0001F920F920FB60F9211242F933F938F933A
:1043E0009F93AF93BF9380915E0190915F01A091E5
:1043F0006001B091610130915D0123E0230F2D3701
:1044000058F50196A11DB11D20935D0180935E01B9
:1044100090935F01A0936001B0936101809162016C
:1044200090916301A0916401B09165010196A11D75
:10443000B11D8093620190936301A0936401B093D6
:104440006501BF91AF919F918F913F912F910F90F7
:104450000FBE0F901F90189526E8230F0296A11DFE
:10446000B11DD2CF1F920F920FB60F9211242F932E
:104470003F934F935F936F937F938F939F93AF93EC
:10448000BF93EF93FF938091520190915301A091BC
:104490005401B0915501892B8A2B8B2B09F440C014
:1044A0008091510181110BC088B190E4892788B9AE
:1044B00080915001882319F088B1805888B9809183
:1044C000520190915301A0915401B09155011816D9
:1044D00019061A061B069CF4809152019091530113
:1044E000A0915401B09155010197A109B1098093A0
:1044F000520190935301A0935401B0935501FF9141
:10450000EF91BF91AF919F918F917F916F915F914B
:104510004F913F912F910F900FBE0F901F901895C4
:104520000E943816ECCFEF92FF920F931F93CF9318
:10453000DF93F82E192FE62E042F81E0860F880FC7
:104540000E94B51483E00E94B514CF2DD12FEC0E3C
:10455000FD2EF11CCE15DF05B9F007FF13C0FE01DB
:1045600084910E94B514182F80E00E94B514812315
:1045700021968111EFCFDF91CF911F910F91FF9085
:10458000EF9008958881EDCF81E0F5CFE1E8F5E087
:104590001382128288EE93E0A0E0B0E084839583DA
:1045A000A683B7838EE191E0918380838FEF9FEFA5
:1045B0009587848780E093E19093E0058093DF0501
:1045C00080E090E89093DE058093DD0546983E9A62
:1045D00047983F9A0895789484B5826084BD84B5E5
:1045E000816084BD85B5826085BD85B5816085BDEE
:1045F00080916E00816080936E00109281008091A6
:10460000810082608093810080918100816080932D
:104610008100809180008160809380008091910072
:1046200082608093910080919100816080939100DD
:10463000809190008160809390008091C10084609F
:104640008093C1008091C10082608093C1008091FD
:10465000C10081608093C1008091C300816080931C
:10466000C3008091C00082608093C0008091C2002E
:1046700081608093C20080917A00846080937A0088
:1046800080917A00826080937A0080917A008160C4
:1046900080937A0080917A00806880937A001092EB
:1046A0007B0110926B0110926D018091D7008160A7
:1046B0008093D70080EA8093D80089B5806189BD56
:1046C00089B5826089BD09B400FEFDCF61E070E06C
:1046D00080E090E00E946C158091D8008F7C806112
:1046E0008093D8008091E000807F8093E0008091EB
:1046F000E1008E7E8093E1008DE08093E200559A88
:10470000209A81EC80937C0085B1806F85B984B15B
:10471000877E84B984B1876E84B95E9A5F988AB1C6
:10472000806D8AB9769A6E9881B3806F81BB8998C3
:1047300080B38D7080BB80E58CBD81E08DBD85E050
:1047400090E00E941C195F9A85E090E00E941C197D
:104750005E985C98E4E6F4E281E794E224912EBD51
:1047600000000DB407FEFDCF31968E179F07B1F7FD
:104770005C9A81E8809364008091650081608093F9
:10478000650080E00E94101380E80E943F19882392
:10479000A9F05C9885EA8EBD00000DB407FEFDCF40
:1047A0005C9A2E982F982D98809164008062809357
:1047B000640081E083BF889513BEFCCF84E00E9433
:1047C0003F19882309F448C02D9884E80E943F19B6
:1047D0008823E1F00E941A1988EC90E00E941C19CD
:1047E0002F9882E090E00E941B268F3F29F06FEF08
:1047F00082E090E00E94232684EF91E00E941C1941
:104800002F9A84E80E943F198111FBCF84E10E9416
:104810003F198823E1F00E941A1988EC90E00E9469
:104820001C192E9882E090E00E941B26882329F014
:1048300060E082E090E00E94232684EF91E00E94F5
:104840001C192E9A84E10E943F198111FBCF88EC3C
:1048500090E00E941C19B2CF0E941A1982E090E0E9
:104860000E941B26882309F476C00E942E1981E03D
:1048700090E00E941B268470B82E81E090E00E9498
:104880001B2681FF12C0B1102E98C1EFDFEF08E0A8
:1048900010E078E5A72E80E40E943F19882309F4F0
:1048A0005DC02E9A2F9A0E941A1982E390E00E940E
:1048B0001C190E9421198111F8CF81E28093020115
:1048C000809164008E7F8093640080917A00806480
:1048D00080937A0080917A0086FDFCCFC0917800A9
:1048E000D09179000E944715AB01BC01CE01B0E028
:1048F000A0E0DC01992788278C019D01040F151F7A
:10490000261F371FC901B801209164002160209340
:104910006400611571058105910511F00E94122650
:1049200011E0C0E0D0E001E08FB7F89440915E0163
:1049300050915F0160916001709161018FBF809122
:104940005801882309F49CC010925801209761F304
:104950000E940000E9CF0E94291989CFBB2029F0CD
:10496000C430D10511F42E9A2F9881E00E941013C3
:104970009E01D7FF04C0222733272C1B3D0B277035
:104980003327CE01D7FD079663E0959587956A9505
:10499000E1F7D7FF05C00197A801421B530B9A010D
:1049A000BC017695762F6627779567956F577E4F72
:1049B000F12CE12C3801621A730A8E3F5FEF9507E4
:1049C00009F43DC0AE9CD001AF9CB00D112450E065
:1049D00040E0AF58BB4D4B01E0E88E0E911C8F3F7D
:1049E000980791F0FD01E40FF51FE4916B01C40EEF
:1049F000D51EF0E02F01022E01C0440C0A94EAF704
:104A0000F60154884528448A2115310599F0FD01A5
:104A1000E40FF51FE4916401C40ED51EF0E02F01F0
:104A2000062C02C0559447940A94E2F7F601548884
:104A30004528448A4F5F5F4F4835510581F60196FE
:104A400060587F4FEA94EF28B9F480E00E94101379
:104A50008FE090E00E941C192196C931D10509F020
:104A60001ACFBB2011F02F9A2D9880E991E00E9477
:104A70001C190E941A1919CFEE24E394F12C9DCF32
:104A800080915901242F281B822F90910201291710
:104A900040F48F5F891708F059CF13BF889513BE74
:104AA00055CF009358014093590180915601909140
:104AB00057010196909357018093560180915B01B5
:104AC00080935A010E94211980935B010E94031375
:104AD000E0915C01F0E0EE0FFF1FEF5DFA4D859174
:104AE0009491FC01099580E00E9410132FCF8F92C2
:104AF0009F92AF92BF92CF92DF92EF92FF92CF93AD
:104B0000DF93EC01688179818A819B816115710550
:104B10008105910521F464E279ED8BE597E02DE1C3
:104B200033EF41E050E00E94312649015A019B01D8
:104B3000AC01A7EAB1E40E9450266B017C01ACEE07
:104B4000B4EFA50194010E945E26C60ED71EE81E92
:104B5000F91EF7FE06C081E0C81AD108E10880E816
:104B6000F80AC882D982EA82FB82C701B6019F7720
:104B7000DF91CF91FF90EF90DF90CF90BF90AF90FB
:104B80009F908F9008958F929F92AF92BF92CF92F5
:104B9000DF92EF92FF9260910F017091100180916E
:104BA000110190911201611571058105910521F4A2
:104BB00064E279ED8BE597E02DE133EF41E050E0E1
:104BC0000E94312649015A019B01AC01A7EAB1E4D8
:104BD0000E9450266B017C01ACEEB4EFA50194015C
:104BE0000E945E26C60ED71EE81EF91EF7FE06C0FE
:104BF00081E0C81AD108E10880E8F80AC0920F01E4
:104C0000D0921001E0921101F0921201C701B60199
:104C10009F77FF90EF90DF90CF90BF90AF909F90E5
:104C20008F90089560930F0170931001809311018C
:104C3000909312010895F999FECF92BD81BDF89A23
:104C4000992780B50895262FF999FECF1FBA92BDF6
:104C500081BD20BD0FB6F894FA9AF99A0FBE01965D
:104C60000895052E97FB1EF400940E94482657FDD8
:104C700007D00E94632607FC03D04EF40C9448260C
:104C800050954095309521953F4F4F4F5F4F089578
:104C900090958095709561957F4F8F4F9F4F0895A8
:104CA0000E948526A59F900DB49F900DA49F800D16
:104CB000911D11240895B7FF0C9450260E94502690
:104CC000821B930B0895A1E21A2EAA1BBB1BFD01A8
:104CD0000DC0AA1FBB1FEE1FFF1FA217B307E407DB
:104CE000F50720F0A21BB30BE40BF50B661F771F33
:104CF000881F991F1A9469F7609570958095909513
:104D00009B01AC01BD01CF010895A29FB001B39FEB
:104D1000C001A39F700D811D1124911DB29F700DC4
:104D2000811D1124911D0895EE0FFF1F0590F49130
:084D3000E02D0994F894FFCF77
:104D3800030410FFFFFFFF00E10000000000000176
:104D480000000000C1808100000000000000341451
:0C4D58009F1555144A149B14591477142D
:00000001FF
